:020000040800F2
:1000000000040020B9010008BB010008BB01000882
:10001000BB010008BB010008BB010008BB010008D0
:10002000BB010008BB010008BB010008F9D50008AE
:10003000BB010008BB010008BB01000833E8000851
:10004000BB010008BB010008BB010008BB010008A0
:10005000BB010008BB01000809360008493600084A
:1000600089360008CD36000811370008BB010008AA
:10007000BB010008BB010008FDEE0008BB01000841
:1000800055370008BB010008BB010008BB01000890
:10009000BB010008BB010008BB010008BB01000850
:1000A000BB010008BB010008E9EA0008FDEA0008FE
:1000B000BB010008BB010008BB010008BB01000830
:1000C00051E80008F5370008BB010008A93800080E
:1000D000BB010008BB010008BB010008BB01000810
:1000E00072B6264880F30888254880F30988254899
:1000F00025490860022080F31488BFF36F8F0CF04D
:1001000095FF0CF071FD4FF0553020491B4A91428C
:100110003CBF41F8040BFAE71D49194A91423CBF24
:1001200041F8040BFAE71B491B4A1C4B9A423EBF9D
:1001300051F8040B42F8040BF8E700201849194A5B
:1001400091423CBF41F8040BFAE70CF073FF0CF04E
:100150006EFF154C154DAC4203DA54F8041B88476A
:10016000F9E707F02DFB124C124DAC4203DA54F8BC
:10017000041B8847F9E70CF05BBF00000004002077
:10018000000C00200000000808ED00E00000002046
:100190000004002084160108000C0020341B0020FD
:1001A000381B0020E0490020E0000008E0000008C3
:1001B000E0000008E000000892E700F000F8FEE729
:1001C0002DE9F04FC1F80CD0C3689D46BDE8F08F13
:1001D000002383F311882846A04700200DF040F942
:1001E000FEE70DF071F800DFFEE7000053B94AB9F1
:1001F000002908BF00281CBF4FF0FF314FF0FF302F
:1002000000F076B9ADF1080C6DE904CE00F006F807
:10021000DDF804E0DDE9022304B070472DE9F04782
:10022000089E0D4604468846002B4DD18A429446CE
:1002300068D9B2FA82F252B101FA02F3C2F1200196
:1002400020FA01F10CFA02FC41EA030894404FEA5B
:100250001C41B8FBF1F71FFA8CFE01FB178807FB66
:100260000EF0230C43EA084398420AD91CEB03031F
:1002700007F1FF3580F01E81984240F21B81023F5A
:1002800063441B1AB3FBF1F001FB103300FB0EFEBD
:10029000A4B244EA0344A6450AD91CEB040400F1C5
:1002A000FF3380F00981A64540F20681644402389C
:1002B0000021A4EB0E0440EA07401EB10023D44005
:1002C000C6E90043BDE8F0878B4208D9002E00F054
:1002D000EE800021C6E900050846BDE8F087B3FAC4
:1002E00083F100294AD1AB4202D3824200F2FC8062
:1002F000841A65EB030301209846002EE2D0C6E97C
:100300000048DFE702B9FFDEB2FA82F2002A40F0CD
:100310009180A1EB0C0001214FEA1C471FFA8CFED3
:10032000B0FBF7F307FB1300250C45EA00450EFB75
:1003300003F0A84208D91CEB050503F1FF3802D2EF
:10034000A84200F2CE8043462D1AB5FBF7F007FB1A
:1003500010550EFB00FEA4B244EA0544A64508D998
:100360001CEB040400F1FF3502D2A64500F2B68072
:100370002846A4EB0E0440EA03409EE7C1F12007A3
:100380008B4022FA07FC4CEA030C25FA07FA4FEAE5
:100390001C49BAFBF9F820FA07F309FB18AA8D40AB
:1003A0001FFA8CFE1D4300FA01F308FB0EF02C0C23
:1003B00044EA0A44A04202FA01F20BD91CEB0404FD
:1003C00008F1FF3A80F08880A04240F28580A8F1D1
:1003D00002086444241AB4FBF9F009FB104400FB42
:1003E0000EFEADB245EA0444A64508D91CEB040450
:1003F00000F1FF356CD2A6456AD90238644440EA60
:100400000840A0FB0295A4EB0E04AC42C846AE46E1
:1004100056D353D0002E69D0B3EB080264EB0E0420
:1004200022FA01F304FA07F71F43CC40C6E900742F
:10043000002147E70CFA02FCC2F1200125FA01F382
:100440004FEA1C4720FA01F195400D43B3FBF7F149
:1004500007FB11331FFA8CFE280C40EA034001FB16
:100460000EF3834204FA02F408D91CEB000001F1F8
:10047000FF382FD283422DD902396044C01AB0FB15
:10048000F7F307FB1300ADB245EA004503FB0EF09E
:10049000A84208D91CEB050503F1FF3816D2A84283
:1004A00014D9023B6544281A43EA014138E7314632
:1004B000304607E72F46E4E61846F9E64B45A9D251
:1004C000B9EB020865EB0C0E0138A3E74346EAE7F7
:1004D000284694E74146D1E7D0467BE7644402389A
:1004E00047E7023B65442FE7084606E73146E9E661
:1004F000704700BF062008B500F0E0FA01200DF0BB
:10050000E1FF00BF024B0146186800F06DB900BF63
:10051000000C0020024B0146186800F0FFB800BF35
:10052000000C0020032A10B516D940EA010C1CF07B
:10053000030F04460B4622D119462046D1F800E0AD
:10054000D0F800C00433F44504F1040417D1043A90
:10055000032A20461946EFD8541EA2B100F1FF3CF1
:10056000013901E0C3180CD01CF801EF11F8012F7C
:10057000A4EB0C039645F5D0AEEB020010BD541E63
:10058000ECE7184610BD104610BD00BF844641EA96
:10059000000313F0030349D1403A23D30B680360EF
:1005A0004B6843608B688360CB68C3600B690361F1
:1005B0004B6943618B698361CB69C3610B6A0362D9
:1005C0004B6A43628B6A8362CB6AC3620B6B0363C1
:1005D0004B6B43638B6B8363CB6BC36340304031A6
:1005E000403ADBD230320BD30B6803604B68436078
:1005F0008B688360CB68C36010301031103AF3D23F
:100600000C3205D351F8043B40F8043B043AF9D2CC
:10061000043208D0D2071CBF11F8013B00F8013B9F
:1006200001D30B8803806046704700BF082A13D3AC
:100630008B07B1D010F00303AED0C3F10403D21A7C
:10064000DB071CBF11F8013B00F8013BA4D331F8D4
:10065000023B20F8023B9FE7043AD9D3013A11F854
:10066000013B00F8013BF9D20B7803704B784370E3
:100670008B78837060467047830730B548D0541E2E
:10068000002A3FD00346CAB201E0013C3AD303F846
:10069000012B9D07F9D1032C2DD9CDB245EA0525B3
:1006A0000F2C45EA054536D9A4F1100222F00F0CB3
:1006B00003F1200EE6444FEA121C03F1100242E956
:1006C000045542E9025510327245F8D10CF101028D
:1006D00014F00C0F03EB021204F00F0C13D0ACF16A
:1006E000040323F003030433134442F8045B9342EE
:1006F000FBD10CF003042CB1CAB21C4403F8012B4B
:100700009C42FBD130BD64461346002CF4D1F9E77E
:1007100003461446BFE71A46A446E0E7002952D034
:1007200038B551F8043C0C1F002BB8BFE41805463F
:1007300000F0F0FA2B4A1368002B45D0A3420CD9E5
:1007400021686018834228D0636028461460BDE8A1
:10075000384000F0E1BAA3420FD81A465B68002B7C
:10076000F9D11168501884421DD034D363605460AD
:100770002846BDE8384000F0CFBA11685018A042B2
:1007800015D028D8216860188342EFD118685B68BB
:100790000144C4E900135460EAE718685B68014447
:1007A000C4E90013D1E7236819441160E0E7206829
:1007B0000144501883421160DAD1D3E900030144A7
:1007C000C2E90013D4E77047284663601460BDE8AF
:1007D000384000F0A1BA0C2328462B60BDE8384011
:1007E00000F09ABA381B0020F8B5CD1C25F003059F
:1007F00008350C2D38BF0C25002D064623DBA942F9
:1008000021D8264F00F086FA3A6822B3144603E056
:1008100063682246FBB11C4623685B1BF8D40B2B94
:1008200015D8636894420CBF3B605360304600F0BB
:1008300073FA04F10B00231D20F00700C21A01D047
:100840001B1AA350F8BD0C2300203360F8BD2360B1
:100850001C442560EAE77968D1B1294630460DF09D
:1008600015FE431C01460CD0C41C24F00304A04216
:1008700005D03046611A0DF009FE013001D0256027
:10088000D4E70C233046336000F046FA0020F8BD70
:1008900030460DF0FBFD7860DFE700BF381B00201D
:1008A00038B5124B04461D68AA6B1AB10023C2E981
:1008B000044338BD1820FFF725FE0246A86378B12F
:1008C00000210B2301209381C2E90401084B09494F
:1008D000094DC2E9011300231560C2E9044338BD84
:1008E0004221064B064800F0CDF900BF000C002065
:1008F000ECDE050034126DE60E33CDABB415010805
:10090000CC15010838B5194B1C68A26B8AB1136964
:100910001749546903FB01F1164800FB0411A3FBBE
:100920000030013341EB0001C2E9043121F0004005
:1009300038BD1820FFF7E6FD0246A06388B1012408
:1009400000250B230A480C49C2E904451160014601
:100950000A4D0B4C93810B4BC2E90154C2E904319F
:1009600038BD4E21084B094800F08CF9000C0020DE
:100970002DF451582D7F954C0E33CDAB34126DE6CE
:10098000ECDE05002E7F954CB4150108CC1501084E
:1009900038B5446C0CB1002038BD80210546FFF706
:1009A00023FF0246686430B1031F7C3243F8044FD2
:1009B0009342FBD1EFE74FF0FF3038BD1F29F8B568
:1009C000054608D8466C0C4617464EB156F824002A
:1009D00046F82470F8BD16234FF0FF302B60F8BDA9
:1009E0008021FFF701FF0646686440B10021031F24
:1009F00000F17C0543F8041F9D42FBD1E6E74FF070
:100A0000FF30F8BD1F2938B5054620D8426C0C468A
:100A10006AB152F8213053B1012B16D0591C10D0B5
:100A20000025204642F824509847284638BD2846DD
:100A300000F0F8F8224601462846BDE8384000F0AC
:100A4000DDB8162301202B6038BD002038BD1623E9
:100A50004FF0FF302B6038BD1F292BD8426C38B5C2
:100A60000C46054682B152F8243002EB84024BB1A9
:100A7000591C1AD0012B16D0002520461560984726
:100A8000284638BD012038BD8021FFF7ADFE024663
:100A9000686460B10020131F02F17C0143F8040F69
:100AA0009942FBD1DFE7032038BD022038BD4FF06B
:100AB000FF3038BD4FF0FF30704700BF38B5144BE2
:100AC0001F281D681FD86A6C044662B152F8203096
:100AD0004BB1012B15D0591C0FD0002542F82050E6
:100AE0009847284638BD284600F09CF82246014623
:100AF0002846BDE8384000F081B8162301202B605D
:100B000038BD002038BD16234FF0FF302B6038BDB4
:100B1000000C0020124B1F2870B51E6808D80D4627
:100B2000716C044649B151F8240041F8245070BD5D
:100B300016234FF0FF30336070BD80213046FFF741
:100B400053FE0146706440B10022031F00F17C0C8B
:100B500043F8042F6345FBD1E5E74FF0FF3070BD4C
:100B6000000C002038B50B4B1D686C6C0CB10020DC
:100B700038BD80212846FFF737FE686438B1031F6F
:100B800000F17C0243F8044F9342FBD1EFE74FF0B2
:100B9000FF3038BD000C002038B5174B1F281D68EA
:100BA00027D86A6C044682B152F8243002EB8402E2
:100BB0004BB1591C1BD0012B17D0002520461560C6
:100BC0009847284638BD012038BD80212846FFF7C8
:100BD0000BFE0246686460B10020131F02F17C0125
:100BE00043F8040F8B42FBD1DEE7032038BD02201F
:100BF00038BD4FF0FF3038BD000C002070B5002626
:100C0000074D0446084611462E600DF063FC431C58
:100C100000D070BD2B68002BFBD0236070BD00BFDF
:100C2000401B00200DF05EBC20F0030110F003001B
:100C3000C0F1000051F8043B00F1040C4FEACC0C69
:100C40006FF000021CBF22FA0CF213434FF0010CAC
:100C50004CEA0C2C4CEA0C4CA3EB0C0222EA0302EB
:100C600012EACC1204BF51F8043B0430F4D0C2F1B4
:100C7000000102EA0102B2FA82F2C2F11F0200EBA5
:100C8000D2007047144600B51A460A4B0D461B6841
:100C900085B0DE6803464CB10749019130460749EB
:100CA0000294009500F022F8FFF724FC04490C465A
:100CB000F3E700BF000C0020001601081016010821
:100CC0000C16010808B513460022FFF7DBFF00BF32
:100CD0000CB400B583B004AB53F8042B019300F0BF
:100CE00057F803B05DF804EB02B070470EB400B5DE
:100CF000074A82B003AB0146106853F8042B0193F6
:100D000000F046F802B05DF804EB03B0704700BF96
:100D1000000C0020704700BF704700BF9368013B84
:100D2000002B936005DAD2F818C0634507DB0A2967
:100D300005D01368581C106008461970704700F001
:100D400069BB00BF9BB1F8B5134406460F46541E5D
:100D50005D1E01E0AC4208D03A46304614F8011F4F
:100D6000FFF7DCFF431CF5D1F8BD0020F8BD0020E3
:100D7000704700BF936810B5144613B91846536006
:100D800010BD00F031FE0023C4E9013310BD00BFE7
:100D90002DE9F04F0E4692461C4607469FB018B10B
:100DA0008369002B00F0A880954B9E4200F0AA803A
:100DB000944B9E4200F0B580934B9E4208BFFE6864
:100DC000B389180740F1A3803369002B00F09F809E
:100DD000002320220B9330239AF80010059401255C
:100DE0008A4C8DF831208DF8323000297DD0D146E3
:100DF0000B4604E019F8013F002B00F09480252BEE
:100E0000F8D1B9EB0A0B40F0918099F80030002B33
:100E10006BD000234FF0FF3209F10109CDE9072320
:100E2000069309938DF85B301C9304E0001B05FAD0
:100E300000F018430690CA460522204619F8011B07
:100E400001F01CF8069B0028F0D1D90644BF2022EF
:100E50008DF85B201A0748BF2B229AF8001048BF74
:100E60008DF85B202A2972D1059A11680432002975
:100E70000592C0F2A08009919AF801100AF1010AC6
:100E80002E2976D0DFF888910322484600F0F6FF3D
:100E900048B14022069BA0EB090002FA00F0034390
:100EA0000AF1010A06931AF8011B062259488DF827
:100EB000301000F0E3FF002800F08380564B002B39
:100EC0006CD005A9009132463846544B06A9AFF3C1
:100ED00000800390039B013307D00B9B039A9AF881
:100EE000001013440B93002981D1B3895B0615D4FC
:100EF0000B981FB0BDE8F08F00F056FD404B9E42AE
:100F00007FF456AF7E68B38918073FF55DAF314671
:100F1000384600F0E1FA00283FF45AAF4FF0FF30B6
:100F2000E7E7BE684CE7B9EB0A0BDED0D046CAF162
:100F3000010A03E0934538D918F8011F32463846B4
:100F4000FFF7ECFE01300AEB0802F3D1CDE7A1F187
:100F50003002092A94D8099B1AF8011F03EB830376
:100F600002EB4303A1F13002092AF5D92E29099396
:100F700088D19AF801102A292DD1059B0AF1020087
:100F80001A680433002A0593B8BF4FF0FF339AF86C
:100F9000021007928246B8BF079373E7059B073399
:100FA00023F007030833059397E70B9A99F800306D
:100FB0005A440B922BE7494243F0020309910693EE
:100FC0005AE705A9009132463846144B06A900F0AD
:100FD000CBF803907EE70023A1F13002092A0AF141
:100FE000010A07933FF64EAF1AF8011F03EB830384
:100FF00002EB4303A1F13002092AF5D9079341E737
:10100000F8030108D8030108B803010840160108D5
:10101000481601084C16010800000000450D0008A4
:101020008C4600B586461346034A714610685DF843
:1010300004EB6246FFF7ACBE000C00202DE9F04740
:1010400091461E460A698B680C469A42B8BF1A46FA
:10105000C9F8002091F843300546DDF8208013B12F
:101060000132C9F80020226891065DD5D9F8003018
:101070000233C9F80030226812F0060F11461ED163
:10108000E168CB1A002BD8BF114618DD002704F108
:10109000190A06E0D9F80030E268A2EB030CBC455F
:1010A0000CDD0123524631462846C047013007F186
:1010B0000107EFD14FF0FF30BDE8F087216894F8C9
:1010C0004330003B18BF01238A060AD53021E218BD
:1010D00082F8431094F845105A1C2244023382F8D7
:1010E00043103146284604F14302C0470130E1D0A5
:1010F000236803F00603042B1DD0A36822699342E2
:1011000025DD00279B1A1F4404F11A09002401E081
:10111000BC421CDA01234A4631462846C04701300A
:1011200004F10104F4D1C5E712F0060F12D0003B20
:1011300018BF0123D5E7D9F80030E1682269C91A40
:10114000A36821EAE1779342DCDC0029DCDC0020A3
:10115000BDE8F087E168D9F80030CB1A002BD8BF82
:10116000114693DCABE700BF2DE9F04317460A7E3A
:1011700085B00C46064698460C9D01F1430C002AAA
:1011800033D0A2F15803D9B2202967D8202B65D8D3
:10119000DFE813F0DD0064006400640064006400B4
:1011A00064006400640064006400A3006E006400D6
:1011B0006400640064006E00640064006400640005
:1011C00021007F00BF0064006400AE0064007F0067
:1011D00064006400E40023681A0640F102812B6871
:1011E0006269191D29601B681A600023E1462361AA
:1011F0003B4621463046CDF8008003AAFFF71EFF8C
:10120000013020D04A46394630462369C047013074
:1012100019D02368E0689B07039919D5431A002B5E
:1012200016DD002504F1190904E0E0680399431A6A
:10123000AB420DDD01234A4639463046C0470130F6
:1012400005F10105F1D14FF0FF3005B0BDE8F083A5
:101250008842B8BF084605B0BDE8F083012384F892
:10126000422004F142092361002384F84330BFE7A0
:101270002368190602D45A0600F1BF8029680A685B
:10128000043129601146002A6ADB0A25DFF87CE177
:1012900010E02368180640F19A802B68191D296018
:1012A00019686F2A0CBF08250A25DFF860E10023C2
:1012B00084F843306268002AA2607DDB236823F053
:1012C00004032360002959D1002A77D1E146082D73
:1012D00063D0ACEB090323618AE701222B6804F198
:1012E0004209196804332B6084F842102261BBE77D
:1012F0002B6800211A1D2A60D3F8009062684846C6
:1013000000F0BCFD00287FD0A0EB090060602061E8
:10131000AAE7236843F0200323607822DFF8F0E097
:1013200084F845202A68111D2960190642D45D06FB
:1013300040D51188D80744BF43F02003236000291B
:1013400043D12368102523F020032360AFE75823FF
:10135000DFF8B8E084F845302368E3E72368DCE78A
:101360002D2284F8432062684942002AA26002DBF1
:1013700023F0040323600A25DFF890E0E146B1FB87
:10138000F5F30A4605FB131019461EF80030AA4271
:1013900009F8013DF3D2082D9BD12368D90798D5D0
:1013A000626823699A4294DC302309F1FF3989F895
:1013B00000308EE71168BDE70029DFD19EF80030CC
:1013C00004F1420984F8423081E710256FE713F0F9
:1013D000400F2B6803F1040129600CBF19681988BC
:1013E0005FE713F0400F2B68626903F10401296085
:1013F0001B6814BF1A801A60F7E62A68B2F9001059
:1014000004322A600A463EE7606880E75416010805
:1014100068160108F8B506460D46144608B18369FA
:1014200043B3254B9C422AD0244B9C4229D0244BC9
:101430009C4208BFF468A269A389A2601A0722D55A
:10144000236903B322686169D31AEDB299422F462A
:1014500029DD0133A1680139A160511C216015709B
:1014600062699A4216D0A389DB0701D50A2D11D0F3
:101470003846F8BD00F098FA0F4B9C42D4D17468FE
:10148000D9E7B468D7E72146304600F025F838B9E7
:101490002369D7E72146304600F024F90028E7D039
:1014A0004FF0FF37E4E72146304600F01BF90028F3
:1014B000F6D101232268CDE7F8030108D80301081B
:1014C000B803010803460A46024908681946FFF7AF
:1014D000A1BF00BF000C00203C4B70B51D68064644
:1014E0000C460DB1AB69E3B1394B9C421FD0394B6F
:1014F0009C424DD0384B9C4208BFEC68B4F90C308C
:1015000018079AB219D5216911B312F001002FD032
:1015100000256069A5604042A06100292ED000200E
:1015200070BD284600F040FA294B9C42DFD16C6820
:10153000B4F90C3018079AB2E5D4D1063ED552075B
:1015400028D4216943F00803A3819AB20029DCD191
:1015500002F42070B0F5007FD7D02146304600F06D
:10156000FFFBB4F90C3021699AB212F00100CFD11F
:10157000950758BF6069A0600029D0D1120658BFF6
:101580000846CDD543F040034FF0FF30A38170BD36
:10159000AC68B3E7616B51B104F14402914204D0ED
:1015A0003046FFF7BBF8B4F90C300022626300222A
:1015B000216923F02403C4E90012C3E7092243F0A0
:1015C000400332604FF0FF30A38170BD000C00205B
:1015D000F8030108D8030108B8030108F8B58B899E
:1015E0000C46190707463BD46268002A55DDE66AB7
:1015F000002E50D000223D683A6013F4805250D142
:1016000001233846216AB047421C5CD0A389E66AB0
:101610005B0705D56368C01A636B0BB1236CC01AF6
:101620000246216A00233846B047411C3BD13B6843
:10163000002B38D01D2B01D0162B4BD10023226953
:10164000C4E90023616B3D6029B304F1440399426E
:1016500002D03846FFF762F8002318466363F8BDEE
:101660002669C6B19A0718BF0023256808BF6369B9
:101670002660AD1BA3600CE02B463246D4F828C090
:101680003846216AE047B0F1000CA5EB0C05664432
:1016900012DD002DF0DC0020F8BD226C002AA6DC53
:1016A000F9E7606DB4E70022236962602360A389D3
:1016B000DB04C7D56065C5E7A3894FF0FF3043F071
:1016C0004003A381F8BD3B68002B9FD01D2B06D0A3
:1016D000162B04D0A38943F04003A381F8BD00205A
:1016E0003D60F8BD38B50B69BBB10C46054608B185
:1016F0008369B3B10D4B9C4211D00D4B9C4213D06A
:101700000C4B9C4208BFEC68B4F90C302BB121465D
:101710002846BDE83840FFF761BF002038BD6C683F
:10172000F2E700F041F9E5E7AC68EDE7F8030108FE
:10173000D8030108B803010838B540B3036904466B
:10174000E3B1174B1D680DB1AB69CBB1154B9C4292
:101750000FD0154B9C4221D0144B9C4208BFEC6823
:10176000B4F90C3053B121462846BDE83840FFF7A4
:1017700035BF6C68B4F90C30002BF4D1002038BDB3
:10178000284600F011F9074B9C42E2D1F1E7084BE3
:1017900008491868BDE8384000F0BEBAAC68DFE719
:1017A000000C0020F8030108D8030108B803010861
:1017B000B4030108E516000800207047014900F055
:1017C000ABBA00BFE516000800207047682270B56C
:1017D0004D1E02FB05F50E4605F17401FFF704F8F6
:1017E000044640B100210C30C4E9016005F16802F3
:1017F0002160FEF741FF204670BD00BF274B2DE959
:10180000F0411E680746B36953B34FF004084836E9
:10181000D6E90134013B04D51EE05A1C04F16804EA
:101820001AD0B4F90C50013B002DF6D11C4B082204
:101830002946C4E90055C4E90253C4E90455656664
:10184000A56104F15C00FEF717FFC4E90D55C4E97A
:1018500012552046BDE8F08135682DB12E46D7E7F8
:10186000304600F01FF8D0E74FF4D6713846FEF747
:10187000BBFF044668B1056029460546C0F80480F0
:101880000C304FF4D072A060FEF7F6FE34602E46A6
:10189000BEE70C2330603B60DBE700BFB403010808
:1018A0000100FFFF0023334A2DE9F0471268C0E929
:1018B00012339042036508BF01232F4908BF83619B
:1018C00081620546FFF79AFF034628466B60FFF7E3
:1018D00095FFA86028460024FFF790FF04236E6858
:1018E000DFF898A0DFF89890DFF89880264FE8603E
:1018F0000822F3602146C6E90044C6E90444746640
:10190000B460B46106F15C00FEF7B6FE1F4BC6E999
:10191000086AC6E90A983763AE680822F360214670
:10192000C6E90044C6E904447466B460B46106F1D3
:101930005C00FEF7A1FE164BC6E9086AC6E90A98E4
:101940003763EE682146F3600822C6E90044C6E921
:1019500004447466B460B46106F15C00FEF78CFE6A
:101960000123C6E9086AC6E90B87C6F82890AB616F
:10197000BDE8F087B4030108BD1700085520000832
:101980007D200008BD200008DD20000809000100BE
:1019900012000200024B0349186800F0BDB900BFF5
:1019A000B4030108E5160008836903B97AE77047B4
:1019B000704700BF704700BF704700BF704700BF4F
:1019C000024B0349186800F087B900BF000C0020E3
:1019D000B9170008024B0349186800F07DB900BF31
:1019E000000C0020C91700089368002B00F0B78096
:1019F0002DE9F04FB1F90C300C4619078046174617
:101A000083B098B225D523691BB310F002033D685B
:101A10002DD04FF0000B5E46DFF8B8A2002E00F08C
:101A20008B80564533465A4628BF53464046216A66
:101A3000D4F828C0E047002840F38780BB6883447F
:101A40001B1A361ABB60002BE8D1002003B0BDE89A
:101A5000F08F21464046FFF73FFD002840F03681D9
:101A6000B4F90C303D6898B210F00203D1D110F0F7
:101A7000010976D14E46002E5AD08205D4F808B01E
:101A800040F1B580B3455A4600F2CD8010F4906F16
:101A900000F0CB8023682169A3EB010B636903EBA2
:101AA000430A0AEBDA7A0BF101034FEA6A0A33447C
:101AB0005345524684BF9A465246430540F1EA8058
:101AC00011464046FEF790FE002800F0F9805A4685
:101AD00021690190FEF75AFDA289019B22F49062D0
:101AE00042F08002A28103EB0B0023613246AAEB95
:101AF0000B03B346C4F814A0A3602060B2460026CE
:101B00004946019200F002FAA3682168019AA3EB0A
:101B10000B030A44A3602260B868D144A0EB0A001A
:101B2000B860002891D0B4F90C0080B2002EA4D186
:101B3000D5E9009608359EE7D5E900B608356DE78A
:101B400021464046FFF7CEFD80B3B4F90C304FF08C
:101B5000FF3043F04003A38103B0BDE8F08F0020C5
:101B600070471E46AA46994618461D4656B3002899
:101B700032D04A4620682169B24228BF32468842A4
:101B8000636904D9A16803EB010B5A4574DC9342E5
:101B900065DC2A464046216AD4F828C0E047B0F107
:101BA000000BD2DDB9EB0B09CAD00120BB685D4444
:101BB000A3EB0B03A6EB0B06BB60002B3FF445AF7A
:101BC000002ED4D10AF1080353F8046C9A4653F856
:101BD000085C0833002EF7D032460A21284600F070
:101BE0004DF9002869D00130A0EB0509C1E7206854
:101BF000236998421BD86369B34218D86FF0004C30
:101C0000B44528BFB4469CFBF3FC4A4603FB0CF3E7
:101C10004046216AD4F828C0E047B0F1000A94DDBC
:101C2000A6EB0A0678E7B3463246206866E7B34576
:101C3000DA4628BFB2464946524600F067F9A36823
:101C40002268A3EB0A035244A3602260002BE7D171
:101C500021464046FFF746FD0028E1D075E72946BA
:101C60009346019200F052F9A368019A9B1AA3606F
:101C700023681A44226095E729465A4600F046F93F
:101C8000236821465B4440462360FFF72BFD002874
:101C900088D05AE7404600F0B5F9034600287FF4A3
:101CA00022AF40462169FEF739FD0C22B4F90C3011
:101CB000C8F8002023F0800349E7721C914659E7D9
:101CC0000C22B4F90C30C8F8002040E74FF0FF3088
:101CD000BCE600BF00FCFF7F2DE9F04100268846EE
:101CE00000F14807D7E90154013D0ED4A389013D15
:101CF000012B06D9B4F90E30013302D02046C0477B
:101D000006436B1C04F16804F0D13F68002FE9D151
:101D10003046BDE8F08100BF2DE9F8434FF00009DF
:101D20000746884600F14806D6E90154013D10D423
:101D3000A389013D012B08D9B4F90E30013304D039
:101D400021463846C04749EA00096B1C04F1680483
:101D5000EED13668002EE7D14846BDE8F88300BFD3
:101D6000F0B58B890C46990797B007D5012204F18D
:101D70004703C4E90432236017B0F0BDB4F90E1074
:101D8000054600292DDB6A460CF08DFB002827DB79
:101D9000019E4FF4806706F47046A6F50056B6FA29
:101DA00086F6394628467609FEF71EFD30B3A3892C
:101DB0001A4A43F08003AA62C4E90407A3812060A1
:101DC000002ED9D02846B4F90E100CF078FB00286C
:101DD000D2D0A38923F0030343F00103A381CBE70F
:101DE000A38913F0800F14BF40274FF48067284663
:101DF00039460026FEF7F8FC0028D8D1B4F90C309B
:101E00009A05B9D4012123F0030304F1470243F0FA
:101E10000203C4E90421A3812260ADE7BD170008D5
:101E200070B50C46B1F90E10164600291D4696B045
:101E300013DB6A460CF037FB00280EDB01994FF4E8
:101E4000806301F47041A1F50051B1FA81F10020E5
:101E500049092960336016B070BD0022B4F90C3016
:101E60002A601B0604D540230020336016B070BDE5
:101E70004FF480630020336016B070BD5FFA81FCC0
:101E8000810710D00346511E2AB90AE09A07184666
:101E90000AD0013905D3184613F8012B6245F5D154
:101EA000704700207047114603290CD80029F8D04C
:101EB0000346014401E08B42F3D0184613F8012B8E
:101EC0006245F8D1ECE7024610B54CEA0C2444EA2E
:101ED00004441046036804326340A3F1013E2EEA35
:101EE000030313F0803F04D1043903291046F0D8CE
:101EF00051B10346014401E08B4205D0184613F866
:101F0000012B6245F8D110BD002010BD88420DD9CB
:101F10008B1883420AD900EB020CBAB1624613F85F
:101F200001CD994202F801CDF9D170470F2A0ED8A0
:101F3000034602F1FF3C4AB10CF1010C013B8C4419
:101F400011F8012B614503F8012FF9D1704740EAE0
:101F500001039B074FD1A2F1100370B501F1200CD2
:101F600023F00F0501F1100E00F11004AC441B0921
:101F70005EF8105C0EF1100E44F8105C5EF81C5C0C
:101F8000103444F81C5C5EF8185C44F8185C5EF889
:101F9000145CE64544F8145CEAD1013312F00C0FEE
:101FA00001EB031102F00F0400EB031327D08E4660
:101FB000043C24F003064FEA940C1E441C1F5EF8F8
:101FC000045B44F8045FB442F9D10CF1010402F05F
:101FD000030203EB840301EB840102F1FF3C4AB1ED
:101FE0000CF1010C013B8C4411F8012B614503F805
:101FF000012FF9D170BD034602F1FF3C9CE7224658
:10200000EBE700BFF8B51446F9B1CAB106460D4674
:1020100000F068F8A04202D32F463846F8BD2146AA
:102020003046FEF7E1FB07460028F6D02246294657
:10203000FEF7ACFA30462946FEF770FB3846F8BD8D
:102040002746FEF76BFB3846F8BD1146BDE8F84061
:10205000FEF7CABB10B50C46B1F90E100CF00BFA26
:10206000002803DB636D0344636510BDA38923F47B
:102070008053A38110BD00BF002070472DE9F041BF
:102080000C46B1F90C101F46CB05054616460BD47D
:1020900021F48051A1813B4632462846B4F90E1006
:1020A000BDE8F0410CF0EEB9B4F90E1002230022A5
:1020B0000CF0E6F9B4F90C10EAE700BF10B50C46D5
:1020C000B1F90E100CF0DCF9A389421C0EBF23F409
:1020D000805343F480536065A38110BDB1F90E10A5
:1020E0000CF0D2B951F8040C0028A0F10400BCBFD8
:1020F0000B58C018704700BF0F4A0023114610B597
:10210000147C844211D11C225343CA18906858B1E0
:10211000CB58FF281FBF58434000013050604FF09C
:10212000010004BF0133536010BD0133642B02F181
:102130001C02E5D10020F7E7A40E0020F0B50A4EFE
:1021400000253446377C874207D11C2000FB054020
:102150004176027683760120F0BD0135642D06F1CB
:102160001C06EFD10020F7E7A40E0020094A30B585
:1021700000231446157C854205D11C22012002FB58
:102180000343996030BD0133642B02F11C02F1D18D
:102190000020F7E7A40E0020094A30B500231446BA
:1021A000157C854205D11C22012002FB03435960A6
:1021B00030BD0133642B02F11C02F1D10020F7E79E
:1021C000A40E002070B50B4C00232546267C8642C9
:1021D00009D11C204343E818E95000238260C36002
:1021E0004374012070BD0133642B04F11C04EDD154
:1021F0000020F7E7A40E002070B500252E462C4CD9
:102200006368002B50D0E06810BB637CB3FA83F3A3
:102210005B0963740AF098F9D4E900239342E06003
:102220002CD266606674E66063690BB1207C9847C7
:10223000207CFF2825D100221146104607F092FF8E
:102240000735B5F52F7F04F11C04D9D1012070BDED
:102250000AF0BEF923689842D7D26368002BE3D016
:10226000204602F055FD0028EAD0637C207CB3B103
:10227000FF280CD1A27E217E607EDFE79B1A63607F
:10228000EBE75128DCD800231A46194604E0512810
:10229000D6D8A37E227E617E07F0EAF8D0E7FF2839
:1022A000C9D05128CCD8EFE76374E360C8E700BF1A
:1022B000A40E002007B543788DF8003083788DF8A0
:1022C0000130C3788DF8023043798DF803300379FB
:1022D00068468DF804300DF0DFFE03B05DF804FBB6
:1022E00008B5074B5A78032A07D858680AF070F9DE
:1022F000C72894BF0020012008BD0020FCE700BFD4
:10230000A40C00207047002280214FF0804008B5C7
:102310000CF059FAFFF7F6FF00BF00BF00BF00BF87
:1023200000BF00BF00BF00BF00BF00BF00BF00BFB5
:1023300000BF00BF00BF00BF00BF00BF08BD08B5A1
:1023400001F022FB08BD000008B5054C20780DF017
:102350009BF92078FFF7F3FF05200BF086F8F5E7EF
:10236000E845002010B5084C236803F07142074B84
:10237000134323600AF0E8F8054B18602068BDE8B5
:10238000104004F060BD00BFE84500200001010ED0
:10239000481B002010B5064C0122204602210CF0FB
:1023A00012FA0223A361BDE8104001F093BB00BF05
:1023B0000004004001207047144B10B51C78BCB9D4
:1023C000134B1B78042B13D104F02AFC04F03EFCC1
:1023D00004F0F0FB04F06AFC05F062FE05F07CFE00
:1023E000204609F047FF2046BDE8104009F05EBFD7
:1023F0000DF056FE48B10DF03DF90028FBD1BDE8C7
:1024000010404CF250300BF030B810BDE8450020C1
:102410008C49002038B500230C46084D0B7030B1B4
:102420000AF092F8002328602370002038BD286845
:102430000AF0CEF83228F3D8F7E700BF581B002087
:10244000084B9A78012A07D0022A09D0064B18684F
:10245000B0FA80F04009704758780128F6D17047EB
:102460000120FCE7A40C0020C01C002008B5054B8F
:102470009B78013B012B02D9FFF7E2FF08BD012049
:10248000FCE700BFA40C002008B50AF05DF8014B82
:10249000986008BDA40C002010B5094C237820706A
:1024A00063700AF051F86060FFF7EEFF00F05CFE29
:1024B000BDE810400022034B53201A700DF06CBD94
:1024C000A40C0020541B0020F8B50C461546074606
:1024D00060B300293FD0884201D0FFF76DFF584E0E
:1024E0003378013B012B04D80320FFF7D5FF0023ED
:1024F000B370544E3378A34200D11DB10022524B29
:102500009A619A83347024B1631E042B747098BF4F
:10251000B470306804F097FC3378062B00F28980A1
:10252000DFE803F0852A46505A646E000029D6D0B1
:102530000222464B464E9A613378012BCDD030466D
:102540000CF020F930460BF0EBFC4248424B836024
:1025500009F05CFEC1E74FF400323C4B3C489A6105
:102560000378042BB9D03D4B3A4E19703C4BB36005
:102570000AF094FA3046EBE7312075B10DF00CFD0E
:1025800052200DF009FD01200DF012FD4EF2C54163
:1025900043F22D400DF062FD51200DF0FDFCFFF7E0
:1025A00073FF2A462146384601F0C8FE0120F8BDD7
:1025B0003220002DF1D00DF0EFFC52200DF0ECFC9C
:1025C0000220E1E73320002DE7D00DF0E5FC52209A
:1025D0000DF0E2FC0320D7E73420002DDDD00DF014
:1025E000DBFC52200DF0D8FC0420CDE73520002D77
:1025F000D3D00DF0D1FC52200DF0CEFC0520C3E766
:102600003020002DC9D00DF0C7FC142115480DF065
:10261000F5FC242114480DF009FD4EF2C54143F2AA
:102620002D400DF01BFD52200DF0B6FCB4E711203B
:10263000B3E711200DF0B0FCFFF794FEAFE700BF49
:10264000A40C0020E8450020640C00200004004099
:102650008C490020141B0020B522000830360020D1
:1026600061CB0008180401082C040108002313B5ED
:102670000DF107018DF80730FFF7CCFE044690B14D
:102680009DF80730013B032B0DD8DFE803F002066D
:102690000F1200221146094B02E00022074B9978E5
:1026A0001878FFF711FF204602B010BD0022062166
:1026B000F1E7024B00225978F2E700BFE84500201D
:1026C00013B5124C20460CF067FF0123A37704F0EA
:1026D000B7FB0F4C206008B9FFF744FEE37843F0E6
:1026E0000103E37009F030FF0A4BFF22186000235A
:1026F0004FF4A87100930848084B0AF083FEFFF7D7
:1027000002FE0120FFF7B2FF02B010BD640C0020F2
:10271000E8450020481B0020601B002049230008DA
:1027200048B1074A1378013B012B07D893782BB99E
:102730000320FFF7B1BE0122024B1A70704700BFA1
:10274000A40C0020541B0020014B1878704700BFD8
:10275000A40C0020014B9870704700BFA40C00200F
:10276000014B9878704700BFA40C0020014BD87033
:10277000704700BFA40C00200122014B1A70704763
:10278000541B0020F8B51C4C1C4EE378B268C3F310
:1027900042031AB9FFF778FE0020F8BD184A52F834
:1027A000235023782BB9174B1B78042B01D1FFF74B
:1027B0006BFE154F3B7893B100233B704FF0804385
:1027C0001B69E278DB0963F300022378E27073B1DE
:1027D00001F0A4FF0028DFD101F00AF9DDE7002DA8
:1027E000DAD0B06809F0F4FEA842E5D2D4E7054B90
:1027F0001B78042BECD1CDE7E8450020A40C002089
:10280000F40401088C490020541B002010B50B4B28
:102810005A78012A03D0022A08D0002005E09C78CB
:10282000012C03D101F048F9204610BD586809F089
:10283000CFFEC728F1D9FFF703FEF6E7A40C00206E
:1028400010B5074BD87810F0FD0404D10220FFF733
:1028500023FE204610BD0320FFF71EFE0120F9E7EE
:10286000A40C002038B50A4D0024EB78033B012B63
:1028700008D80320FFF710FE2046AC7001F0C8F81E
:10288000012038BD0220FFF707FE2046F9E700BF10
:10289000A40C002038B50A4D0024EB78033B012B33
:1028A00008D80320FFF7F8FD2046AC7001F0D0F8FF
:1028B000012038BD0220FFF7EFFD2046F9E700BFF9
:1028C000A40C002070B5974C974D2068B0B109F06A
:1028D0007FFEB0F5FA6F11D30026552026600DF06B
:1028E0005BFB57200DF058FB70200DF055FB29784D
:1028F0003246B1FA81F04009FFF7E6FD2B7823B1AB
:102900008A4B93F820208A4B1A702368DBB9894ED2
:10291000306809F05DFE40F6B733984213D92B7842
:102920008BB10CF0A7FE70B9804CA37F5BB109F0AE
:102930000BFE306053200DF02FFB94F8213013B9BB
:1029400070200DF029FB4FF080431B69EA78DB090A
:10295000794C63F300020020EA70FFF787FE2378CA
:10296000032B1ED8DFE803F002284FA6E36833B13B
:10297000984720B10120FFF78FFD0023A370236942
:1029800033B1984720B10120FFF786FD0223A370E1
:10299000636933B1984720B10120FFF77DFD012322
:1029A000A3700DF0F3F9654B1B78002B00F0B88095
:1029B000BDE8704003F082B9A369002BF1D09847BD
:1029C0000028EED002F0D4F95D4B187008F092F9AF
:1029D0002A785C4B1A700022544B9A772A685A4B1B
:1029E000134063B9594C2378012B08D00222584B6D
:1029F00020469A610BF0C6FE20460BF091FA0220A9
:102A0000FFF74AFDCDE7E369002BCAD098470028BD
:102A1000C7D000224F4B1A704FF080434FF4001282
:102A20009A612A68484B1340B3F1807F10D0A37895
:102A300053B3013B012B0BD86378022B08D0FFF76F
:102A4000BBFC11200DF0A8FA0CF014FE0028FBD1FD
:102A500000F0B8FF0023E3703A4B2A781B789A42C3
:102A600008D12A68384B1340B3F1807F02D0A07898
:102A700000F06CFCA378012B19D0022B14D0002B92
:102A80008FD1FFF7DDFE8CE7284B5B7E002BDFD17B
:102A900011200DF081FA0CF0EDFD0028FBD147F27A
:102AA00030500AF0E2FCD3E7FFF7DCFE79E7FFF7EE
:102AB000F1FE76E7236A002B3FF473AF98470028B6
:102AC0003FF46FAF0122194B9A771D4B1B782BB146
:102AD0004FF0804320229A6108F0F2F80120FFF7BE
:102AE000C5FD30B92A78A2B1697802460846FFF7D9
:102AF000EBFC0024174B1C7000F058FFFFF7C4FCE0
:102B000000F032FB2046FFF7C7FC53200DF044FADB
:102B100047E70E4B1B78012BEBD111466878E6E7AF
:102B200070BD00BF481B0020E8450020640C002059
:102B300030360020501B0020A40C00204D1B00202C
:102B4000441B00204C1B0020FF0000018C4900208A
:102B500000040040541B00200120704708B5FFF717
:102B6000FBFF08BD37B504460D46FFF78DFC29462F
:102B70002046FFF7F3FF60B1074B1A784AB1074BC5
:102B800020461B78D9090091C3F30013A9780DF0F2
:102B900021F903B030BD00BFE8450020FC4500200E
:102BA00000B50B4B8FB0322193F82130094A01A8B0
:102BB00005F02DF901A808F07BFE0CF057FD08F098
:102BC00077FE054808F074FE0FB05DF804FB00BF07
:102BD000640C002050040108610401082B4B13B55C
:102BE0001A7804464AB12A4B01211B78DB0900936D
:102BF00000230DF0EFF802B010BD0028FBD0031F3A
:102C0000DBB2A02B12D8234B0146186809F088FBD1
:102C100020B1204603F0C6FF04F048F8204603F038
:102C2000B9FF02B0BDE8104004F040B800F1200345
:102C3000DBB2072B07D800F007040120A040C0B288
:102C400003F0DEFFEDE700F15B03DBB2022B06D8F9
:102C5000243880B202B0BDE8104009F00BBB00F18F
:102C60005803DBB21A2B07D80B4A32F8130002B014
:102C7000BDE8104009F01ABB3334E4B2122CBAD8C4
:102C8000012102B0BDE8104003F0FEB8E845002085
:102C9000FC450020B8190020BE040108244B13B5E0
:102CA0001A7804464AB1234B1B78DB0900930023B2
:102CB00019460DF08FF802B010BD0028FBD0031F9D
:102CC000DBB2A02B06D803F06DFF02B0BDE81040C8
:102CD00003F0ECBF00F12003DBB2072B07D800F0B4
:102CE00007040120A040C0B203F092FFEDE700F11D
:102CF0005B03DBB2022B05D8104602B0BDE81040E2
:102D000009F0B8BA00F15803DBB21A2B05D8104607
:102D100002B0BDE8104009F0C9BA3334E4B2122C55
:102D2000C9D8114602B0BDE8104003F0ADB800BFED
:102D3000E8450020FC4500202DE9F3410446C0B1E0
:102D4000114E3378C3B10127DFF84080204603F0ED
:102D50002CF8054698F80030E030DB09009301219B
:102D60000023327880B207FA05F50DF033F8AC4352
:102D7000ECD102B0BDE8F08103F042FF02B0BDE843
:102D8000F04103F093BF00BFE8450020FC45002060
:102D90002DE9F3410446C0B1114E3378C3B1012788
:102DA000DFF84080204603F000F898F80030054630
:102DB000DB0900930023E0301946327880B207FA2D
:102DC00005F50DF007F8AC43ECD102B0BDE8F08199
:102DD00003F01EFF02B0BDE8F04103F067BF00BF83
:102DE000E8450020FC4500202DE9F3410446C0B130
:102DF000114E3378C3B10127DFF84080204602F03E
:102E0000D4FF054698F80030E030DB09009301213B
:102E10000023327880B207FA05F50CF0DBFFAC43F3
:102E2000ECD102B0BDE8F08103F000FF02B0BDE8D4
:102E3000F04103F03BBF00BFE8450020FC45002007
:102E40002DE9F3410446C0B1114E3378C3B10127D7
:102E5000DFF84080204602F0A8FF98F800300546D1
:102E6000DB0900930023E0301946327880B207FA7C
:102E700005F50CF0AFFFAC43ECD102B0BDE8F0813A
:102E800003F0DCFE02B0BDE8F04103F00FBF00BF6D
:102E9000E8450020FC4500202DE9F04104460D46A0
:102EA00001F03CFB38BB2378013B142B58D8DFE8FA
:102EB00013F01500250052006C0072007E008100A6
:102EC000810081008600E0008C0090009600A10047
:102ED000AC00AF00B200BD00C800D1000023637099
:102EE0000C23A370674B29461B782046002B40F02B
:102EF000C58009F04BFE0120BDE8F0816378013BFD
:102F0000032B2DD8DFE803F0020C0F2109F01CFB86
:102F1000030EA370030CE370030A23716071E1E7F1
:102F200008F089F9F4E72646A77804F11C08052F74
:102F3000D8D8F8B204F010FB030AF37030710236EF
:102F4000B04507F10107F2D1CCE70023A370E3708D
:102F500023716371C6E76378022B04D0052B10D070
:102F6000FF232370BEE7E378A07840EA03202379AB
:102F700040EA0340637940EA036000BA08F062F96E
:102F8000B0E7A07808F088F9ACE7E278A17860783B
:102F900008F084FDC0E762792379A17843EA02232F
:102FA0005BBAE27860789BB208F08EFD9AE708F091
:102FB000DBFD97E72946204608F0E9F992E7002073
:102FC00008F01CF908F049F98CE708F056FE60702B
:102FD00088E708F054FE030A6370A07082E7607807
:102FE000A378E17840EA032040BA221D80B208F0BD
:102FF00049FE77E76078A378E17840EA032040BA99
:10300000221D80B208F058FE6CE708F068FE69E700
:1030100008F038FDDBE76078A378E17840EA032028
:1030200040BA221D80B208F0E9FD5BE76078A37822
:10303000E17840EA032040BA221D80B208F0F5FD95
:1030400050E7E278A178003A18BF0122607808F0D2
:1030500050FD61E762792379A17843EA0223E2789F
:103060005BBA003A18BF012260789BB208F060FD9D
:1030700038E70123044A6370137033E70DF068F8F2
:1030800039E700BFE84500204D1B002010B543780C
:10309000044613B1FF23237011E08378013B032B17
:1030A000F8D8DFE803F0021A28410378072B07D08D
:1030B000082BEFD12B4BDB78C3F34203C37010BD59
:1030C000C1780729FBD8BDE81040264BDA7861F3B8
:1030D0004302DA70186803F0B6BE0378072B05D0F8
:1030E000082BD7D101F02BFBE070E8E7C078BDE8F2
:1030F000104001F0F3BB0378072B0AD0082BC9D18D
:1031000042790179C07801F01CFBA071000AE071DE
:10311000D5E7C2798379017943EA0223BDE81040FB
:103120004279C07801F023BB0378072B0DD0082B20
:10313000B0D12379C078617940EA032040BAA21D5A
:1031400080B2BDE8104001F027BB2379C0786179D7
:1031500040EA032040BAA21D80B2BDE8104001F051
:1031600036BB00BFE845002008B509F0EDF9014B7A
:10317000186008BDB01C0020164B10B51C788CB927
:10318000154B1B78052B08D0022B06D009F0DCF973
:10319000124B1860124B1C7010BD4FF080431B691E
:1031A0001B0603D4BDE81040FFF7DEBF0B4B1868C9
:1031B0000028F7D009F00CFA41F657339842EBD9C2
:1031C000FFF7D2FFBDE810400122054B1A70FFF750
:1031D000D3BA00BFE84500208C490020B01C002075
:1031E000B41C00202DE9F0411B4C064625781DB18A
:1031F00001242046BDE8F081FFF7A6FA0138012836
:1032000005D80320FFF748F92846FFF7A3FA94F8FA
:103210000080B8F1000FEBD1104D2B78052BE7D1D2
:10322000B5F84C309B0702D50D4F3C7824B9FF2EE2
:1032300094BF00240124DCE7FFF786FA0328D7D8DF
:1032400087F80080FFF790FF28460AF015FF284610
:1032500001F0A4F9CDE700BFE84500208C4900202B
:10326000B41C0020704700001A4B70B59C6C0F26F0
:1032700044F4C0649C649B6C012301F003048B4004
:1032800021F0030101F1804101F5A0518D68A400F6
:10329000C0F38320A04006FA04F425EA040528437D
:1032A0008860D8430C4912F0010F8C6814BF1C438E
:1032B00004408C6012F0020FCA6814BF1A43024027
:1032C000CA60054A536111680B4313605368034099
:1032D000536070BD000C0140001800400F281FD83B
:1032E000DFE800F0080C0F121518181818181B1B2F
:1032F0001B1B1B1B062108460BF0F7B806210720F5
:10330000FAE706210820F7E706210920F4E706215D
:103310000A20F1E706211020EEE706212120EBE745
:1033200070470120704708B5FFF7FBFF60B101222D
:1033300007214FF08040FFF797FF0720FFF7CEFFF0
:10334000BDE80840FFF70CBA08BD00002DE9F047C2
:103350003023054683F31188FFF7E5FF4FF000099E
:103360000127874EDFF81C8256F8043B95B1012DEA
:103370004FD143454DD123F00F0A03F00F0307FA55
:1033800003F421460522504624040BF01CFACAF827
:10339000184001E0581CEED109F10109B9F10F0FF5
:1033A000E2D106240127784EDFF8E09156F8040BAD
:1033B000002D3AD0012D40F0D580484540F0D28014
:1033C00000F00F01202207FA01F120F00F000BF0AE
:1033D000FAF900BF00BF00BF00BF00BF00BF00BFC1
:1033E00000BF00BF00BF00BF00BF00BF00BF00BFE5
:1033F00000BF00BF00BF56F8040C022200F00F0807
:10340000414620F00F00FFF72FFF4046FFF766FF11
:103410000DE0591CC0D003F00F01202207FA01F182
:1034200023F00F000BF0CFF9B6E7421CC8D1013CE6
:10343000BCD122464FF4006155480BF0C4F900BFDF
:1034400000BF00BF00BF00BF00BF00BF00BF00BF84
:1034500000BF00BF00BF00BF00BF00BF00BF00BF74
:1034600000BF03220B214A48FFF7FEFE0B20FFF7A7
:1034700035FF84F3118872B64FF0E0220120136902
:1034800023F001031361434B434A5A610022A30016
:1034900003F1604303F56143D3F80011D5B2012D68
:1034A00094BF002101F0010109B1C3F8800101328C
:1034B000202AF1D10134082CE8D1384C636843F05C
:1034C00000736360364B1A6802F009021A601A68CA
:1034D00042F46C3242F004021A6040F2B3321A62D3
:1034E000304B43F001039847236943F00403236101
:1034F00030BF2D4B43F0010398474FF0E022236982
:1035000023F0040323611369284C43F00103136182
:10351000E36943F08003E361A36C43F40073A364A5
:1035200009F062FB04F04CF840F282324FF4006183
:1035300017480BF048F9E36C43F00803E364E36CCD
:10354000A36C43F48053A364A36CE36C43F01003B7
:10355000E364E36CFFF786FE002383F3118862B611
:10356000BDE8F087431C3FF462AF00F00F0140223A
:1035700007FA01F120F00F000BF025F957E700BF23
:103580001405010803080040AC0501080D080040BF
:103590000008004000180040FFFF070000ED00E0B9
:1035A000000001408405010850050108000C01409D
:1035B0000120704701207047C31F10B504460B2B34
:1035C00018D8DFE803F01117171713171517171777
:1035D00017060420FFF7CAF82046FFF7E9FF10B1ED
:1035E0002046FFF7E7FF10BD0320F3E70220F1E7D5
:1035F0000520EFE70120EDE701238B40034202D0D5
:103600000846FFF7D9BF704708B50D4B5A69D20776
:1036100006D51A68002022F001021A60FFF7CCFFDD
:103620004022084BC3F88020BFF34F8FBFF36F8F4A
:103630000122034B5A61BDE808400AF00BB800BFF5
:103640000018004000E100E008B50D4B586910F08B
:10365000020006D01A68012122F002021A60FFF768
:10366000CBFF8022074BC3F88020BFF34F8FBFF3FF
:103670006F8F0222024B5A61BDE8084009F0EABF91
:103680000018004000E100E008B50E4B586910F04A
:10369000040006D01A68022122F004021A60FFF723
:1036A000ABFF4FF48072084BC3F88020BFF34F8FFD
:1036B000BFF36F8F0422034B5A61BDE8084009F045
:1036C000C9BF00BF0018004000E100E008B50E4B84
:1036D000586910F0080006D01A68032122F0080289
:1036E0001A60FFF789FF4FF40072084BC3F880207F
:1036F000BFF34F8FBFF36F8F0822034B5A61BDE8B2
:10370000084009F0A7BF00BF0018004000E100E03A
:1037100008B50E4B586910F0100006D01A68042145
:1037200022F010021A60FFF767FF4FF48062084B27
:10373000C3F88020BFF34F8FBFF36F8F1022034B6E
:103740005A61BDE8084009F085BF00BF001800407D
:1037500000E100E038B5254B5C69A20604F47875F9
:1037600007D51A68052122F0200228461A60FFF7C3
:1037700043FF600608D51D4A06211368284623F03A
:1037800040031360FFF738FF210608D5174A0721C9
:103790001368284623F080031360FFF72DFFE2052E
:1037A00008D5124A08211368284623F48073136051
:1037B000FFF722FFA30508D50C4A09211368284604
:1037C00023F400731360FFF717FF4FF48032084BA8
:1037D000C3F88020BFF34F8FBFF36F8F4FF4787221
:1037E000024B5A61BDE8384009F034BF0018004070
:1037F00000E100E038B52A4B5C69620504F47C45C1
:1038000007D51A680A2122F4806228461A60FFF759
:10381000F3FE230508D5224A0B211368284623F41A
:1038200000631360FFF7E8FEE00408D51C4A0C2192
:103830001368284623F480531360FFF7DDFEA104CC
:1038400008D5174A0D211368284623F40053136046
:10385000FFF7D2FE620408D5114A0E2113682846EC
:1038600023F480431360FFF7C7FE230408D50C4AF6
:103870000F211368284623F400431360FFF7BCFEB2
:103880000222084BC3F88420BFF34F8FBFF36F8F22
:103890004FF47C42024B5A61BDE8384009F0DABE71
:1038A0000018004000E100E008B50E4B586910F424
:1038B000802006D01A68122122F480221A60FFF7B5
:1038C0009BFE0822084BC3F88420BFF34F8FBFF341
:1038D0006F8F4FF48022034B5A61BDE8084009F016
:1038E000B9BE00BF0018004000E100E010B5074C71
:1038F00023784BB901F062FA02F075FA08F08CFCFB
:1039000002F072FA01232370012010BDB71C0020C1
:1039100010B5044C23781BB101F034FA0023237056
:10392000012010BDB71C002038B5154C00252378A8
:10393000032B22D8DFE803F0020B131B0A231148E4
:103940008370C57008F08CFC0123237038BDF6230A
:103950000C48C370857008F083FC0223F5E7F6235A
:1039600008488370C57008F07BFC0323EDE70A2349
:1039700004488570C37008F073FC2570E6E700BF4B
:10398000B51C0020CC1C0020054B1B7833B1054B27
:103990001B780BB9FFF7C8BF0CF0C8BA704700BF5F
:1039A000BA1C0020E84500200120704708B5044BF0
:1039B0001B780BB9FFF79AFF01F048FA08BD00BF6A
:1039C000B71C002008B5064B1B780BB1FFF7A0FF12
:1039D0000023044A1370044A1360FFF7E5FF08BD93
:1039E000B71C0020C41C0020C81C00200120704708
:1039F00008B5FFF7FBFF08BD014B1878704700BF03
:103A0000B81C0020014B1870704700BFB81C002084
:103A1000014B1870704700BFB81C0020014B18788C
:103A2000704700BFB91C0020084B10B50446187041
:103A300058B9FEF789FE022807D80320FEF72CFDAF
:103A40002046BDE81040FEF785BE10BDB91C002021
:103A5000FFF7EABF024B187880F00100FFF7E4BFE0
:103A6000B91C0020084B1A78084B1B784BB982F020
:103A70000102A0F5A443203B1F2B8CBF1046012060
:103A800070470022F5E700BFB91C0020B81C0020D9
:103A900000231946064A937213609375D360054A52
:103AA0000333212B917242F80C1BF9D1704700BFF0
:103AB000A0190020C80C002008B503F0F1FDFFF7A5
:103AC000E7FF0022014B1A6008BD00BFC01C0020A8
:103AD0000120704708B5FFF709FFFEF7F1FD01F07F
:103AE00089F948B1012220214FF080400AF06BFE95
:103AF0004FF0804320229A6108BD000000230D4A48
:103B000010B513700C4A4FF0804413700B4A1360C9
:103B100007F008F901280AD007F0FCF84FF4001369
:103B2000A36101F0BBFABDE8104003F02EBA2023D8
:103B3000F6E700BFB61C0020BB1C0020BC1C002008
:103B400008B503F0E7F905F061FC03F072F9084BE2
:103B5000188060F07F001870188803F06DF901F08C
:103B6000EDF918B1BDE80840FFF7C8BF08BD00BFB8
:103B7000FC45002037B504460D4601F08FFB0028B8
:103B800000F0CE80002D00F0CB8047F613639C42FE
:103B90003AD8B4F5FC4F07D247F603439C4200F0F5
:103BA000BC80284603B030BDA4F5FC44132CF8D8E3
:103BB00001A353F824F000BF1F3C00084B3C000851
:103BC0006F3C0008933C0008B93C0008DF3C00084B
:103BD000A33B0008A33B0008A33B0008A33B00084D
:103BE000A33B0008A33B0008A33B0008A33B00083D
:103BF000A33B0008A33B0008A33B0008053D0008C9
:103C00000D3D0008153D000847F643639C42C8D1AE
:103C10000122444B1A700022434B1A60C1E7002373
:103C200001200DF107018DF80730FEF7F3FB9DF839
:103C30000730042B02D013F0FD0FB2D10122114640
:103C40003A4B1878FEF740FCABE7002301200DF15A
:103C500007018DF80730FEF7DDFB9DF80730042BD8
:103C600002D013F0FD0F9CD101220221E8E70023CE
:103C700001200DF107018DF80730FEF7CBFB9DF811
:103C80000730042B02D013F0FD0F8AD1012203214B
:103C9000D6E7002301200DF107018DF80730FEF76C
:103CA000B9FB9DF80730042B03D013F0FD0F7FF410
:103CB00078AF01220421C3E7002301200DF10701A1
:103CC0008DF80730FEF7A6FB9DF80730042B03D0D4
:103CD00013F0FD0F7FF465AF01220521B0E700234B
:103CE00001200DF107018DF80730FEF793FB9DF8D9
:103CF0000730DA1E012A02D9002B7FF452AF0122CD
:103D000006219DE70020FFF78FFE4AE70122084BBE
:103D10001A7046E7FFF79EFE43E7FFF711FF40E703
:103D200005463EE7BB1C0020BC1C0020E8450020E7
:103D3000B91C002070B5FEF7C5FD002501261C4CFE
:103D4000206858B1A37A4BB908F042FC63689842E6
:103D500004D301212089A672FFF70CFF0335062D3D
:103D600004F10C04ECD100250126124C206858B156
:103D7000A37A4BB908F02CFC6368984204D3012164
:103D80002089A672FFF7F6FE0335212D04F10C04FD
:103D9000ECD1094B1A783AB100221A700BF06AFC88
:103DA0000028FBD1FFF7CCFE01F052F870BD00BF38
:103DB000A0190020C80C0020D21C002008B5064B1A
:103DC0001B780BB9FFF792FD4FF0804320229A61D8
:103DD000BDE8084008F082BBB71C00202DE9F7437E
:103DE0000D46AB4A897804461368E9B1032B00D825
:103DF0000133A84F1360FEF747FB3889844217D080
:103E0000B88A84420CD1012695F802804FF00C0943
:103E1000B8F1000F0ED008F097FB09FB06F6B85179
:103E20009D4B00261F4633E0002BE2D0013BE0E72C
:103E30000026E9E709FB06F607EB060999F80A30C0
:103E40000BB9BB51ECE74146FFF794FE89F80A80B5
:103E500047F806800028E3D1002003B0BDE8F083D6
:103E600009FB06F607EB060999F80A300BB9BB51B6
:103E70001DE041462046FFF77DFE89F80A8047F89D
:103E80000680A0B9E8E701360B2E03F10C030ED033
:103E90001A899442F7D195F802804FF00C09B8F1D5
:103EA000000FDDD008F050FB09FB06F6B85129469B
:103EB0002046FFF7D7FD0028CED02946204601F046
:103EC00023FA0028C8D047F607639C422DD8B4F5E2
:103ED000FC4F1BD247F620039C4200F0188147F6A6
:103EE00003439C42B8D02946204600F017FD002825
:103EF000B2D029462046FFF775F90028ACD02946F4
:103F0000204603B0BDE8F043FEF72CBEA4F5FC4408
:103F1000013CAB78062C31D8DFE814F04E00690084
:103F200084009F00C600E1002D00A4F5FC43403B47
:103F30009AB2032AD7D8032BD5D801A252F823F07E
:103F4000513F00085D3F0008693F0008593E0008E6
:103F5000AB78002B80D0FEF723FE7DE7AA784F4B8D
:103F600002B101221A7077E7AB78002B3FF474AFEF
:103F7000FEF702FC70E74A4A13706DE7002B3FF42E
:103F80006BAF484C2378012B3FF466AF0023012030
:103F90000DF107018DF80730FEF73CFA9DF8073068
:103FA000042B03D013F0FD0F7FF456AF0022012144
:103FB0002078FEF789FA4FE7002B3FF44DAF394CDC
:103FC0002378022B3FF448AF002301200DF10701B5
:103FD0008DF80730FEF71EFA9DF80730042B03D04A
:103FE00013F0FD0F7FF438AF00220221E0E7002B31
:103FF0003FF432AF2B4C2378032B3FF42DAF00233B
:1040000001200DF107018DF80730FEF703FA9DF846
:104010000730042B03D013F0FD0F7FF41DAF0022F7
:104020000321C5E7002B3FF417AF1E4C2378042B68
:104030003FF412AF002301200DF107018DF8073086
:10404000FEF7E8F99DF80730042B03D013F0FD0FBD
:104050007FF402AF00220421AAE7002B3FF4FCAE5C
:10406000104C2378052B3FF4F7AE002301200DF10F
:1040700007018DF80730FEF7CDF99DF80730042BC6
:1040800003D013F0FD0F7FF4E7AE002205218FE788
:10409000C01C0020A0190020C80C0020BA1C002061
:1040A000B61C0020E8450020002B3FF4D5AE1F4C85
:1040B0002378062B3FF4D0AE002301200DF1070139
:1040C0008DF80730FEF7A6F99DF80730DA1E012AB1
:1040D00002D9002B7FF4C0AE0022062168E7002B36
:1040E0003FF4BAAE114C2378002B3FF4B5AE002557
:1040F00001200DF107018DF80750FEF78BF99DF8AF
:104100000730012B3FF6A8AE2A46294650E7AB7888
:10411000002B3FF4E8AE06F005FE4FF0804318B1E7
:104120004FF400129A61DEE62022FBE7E84500200A
:10413000014B1878704700BFC41C00200120704755
:10414000F8B505460C46584E584F21462846FFF70D
:10415000F5FF50B1062C08D8DFE804F004085D93A1
:1041600093A0A0000022504B1A60F8BD32687ABBC1
:10417000A5F12C03042B0BD8DFE803F025201B1638
:1041800003000022FF2311463020FDF7D7FF012254
:104190004FF4FA712846FEF715F82846FDF7ACFFF4
:1041A00008F0D2F93060E0E70022FF2311462F200B
:1041B000EBE70022FF2311462E20E6E70023FF2233
:1041C00019462D20E1E7FF232C201A461946DCE78B
:1041D000104608F0FDF947F22F53984203D9052401
:1041E000334B1C70B1E7334B1B7883B92C2D0ED1A8
:1041F000314B1B78042B3FD103232D4C28462370D1
:10420000FF231A461946FDF799FF24789DE77A7E29
:104210008AB30324E4E73068F8B9A5F12D03032B32
:10422000A3D8DFE803F015100B020022FF2311468C
:104230003020FDF783FF0122C821ABE70022FF23D6
:1042400011462F20F5E70022FF2311462E20F0E72C
:104250000023FF2219462D20EBE708F0B9F947F2B9
:104260002F53984201D90624BAE77B7E0BB1042470
:10427000B6E7104B1B786BB12846BDE8F840FDF758
:104280003BBFFF224FF4FA612846FDF79BFF28460B
:10429000FDF732FF0022064B1A7066E70022044B3E
:1042A0001A70FEF769FAE7E7C81C0020640C0020CA
:1042B000C41C0020E84500208C490020014B1978DF
:1042C000FFF73EBFC41C00200120704770B50646B2
:1042D0000D4630200021FDF75FFF10B90024204675
:1042E00070BD00212F20FDF757FF0028F6D00021D8
:1042F0002E20FDF751FF0028F0D000212D20FDF7E2
:104300004BFF0028EAD000212C20FDF745FF0028B4
:10431000E4D029463046FFF7D7FF04460028DDD019
:104320000022044B29461D70034B30461A60FFF7EC
:1043300007FFD4E7C41C0020C81C002070B50D4640
:104340001446FEF737F8064680B155B3174B5B7E2F
:104350002BBB013D052D09D8DFE805F0030C120841
:1043600008182CB102213020FFF7B0FF304670BD95
:104370000121F8E714B102212F20F5E70121FBE725
:1043800014B102212E20EFE70121FBE714B1022135
:104390002D20E9E70121FBE702212C20E4E71E465E
:1043A000E4E7002CF8D10121F7E700BF640C0020FE
:1043B00008B50C4B1B789BB9FEF7C6F980B90A4BC0
:1043C0001A783AB1094A527E52B95978BDE8084084
:1043D000FEF77AB8064B1B78042B01D01146F5E79F
:1043E00008BD00BFC41C0020E8450020640C00206C
:1043F0008C490020704700002DE9F04F424F85B0F6
:1044000005460E46FFF7F6FFFFF7D2FF3C78002C7B
:1044100032D03E4D2B6813B908F096F82860286812
:1044200008F0D6F841F28733984205D93B7801333A
:104430003B7008F089F828603B78013B032B17D8C4
:10444000DFE803F0020C101400226820114605F08A
:1044500089FE0024204605B0BDE8F08F00226821C7
:104460001046F4E7002168220846F0E76822F6E7E4
:1044700000243C702C60EDE7254B1B788BB931464E
:104480002846FFF725FB0028E3D03146284600F0F8
:104490007FFD04460028DCD031462846FDF7ACFEFF
:1044A000D8E722462146204601AF05F05BFEBA461A
:1044B0004FF00A08DFF85CB0DFF85C900A2259463A
:1044C0005046FCF763F899F81F30E2B2B3FBF8F1FD
:1044D000914214D9312B38780AD900236822194621
:1044E000013404F0C5FF0A2C07F10107E6D1C6E745
:1044F0001D2B4FF00003F1D81A466821F0E7002386
:1045000038781A461946EBE7BB1C0020BC1C00207B
:10451000B61C0020C4050108640C002070B50546D7
:104520000E46FDF7B1FFFEF70FF910B10320FDF7BE
:10453000B3FF2B780A2B0ED10124084B31461C7097
:10454000074B28461B781BB908F020FB204670BD9E
:104550000BF0FEFDFAE70020F9E700BFD21C0020B7
:10456000E8450020012810B5044611D002280AD1E0
:10457000FEF7EAF80138012805D80320FDF78CFF83
:104580000020FEF7E7F82046BDE8104007F080BFA6
:10459000014B1870F7E700BF101B0020014808F01E
:1045A00064BF00BFA08601000E4BF0B51B6893B13D
:1045B0001E2202FB00300C4A0123164630F811502F
:1045C00032F8027BDCB2AF4206D104F0070336F8C2
:1045D000133020F81130F0BD0133092BF0D1002346
:1045E000F7E700BFD41C0020B40801082DE9F74309
:1045F00004460D4606F02AFC00274FF01E092D4EFA
:10460000DFF8B4807080E0B2854250D900232B4A95
:104610000FE01CF801EBBEF1FF0F01D070451BD07D
:1046200001310F29F5D10133DBB2062B02F10F0264
:104630003BD094460021ECE7012A07D1012B05D19C
:1046400073888DF800708DF8017016E08DF80130D8
:104650008DF80010738810E0D8F800202AB309FB09
:10466000032333F81120110AD3B2120AE4D1002B2C
:10467000ECD18DF800308DF801308DF802300098C3
:1046800004F0DAF9C0F307238DF80400C0F3074003
:104690008DF805308DF806009DF8063020469DF80F
:1046A00004209DF8051004F0E3FE0134ABE703B0ED
:1046B000BDE8F0834C0D0020D41C0020500D0020DC
:1046C00070B40D461143014304D170BCB4220A48B2
:1046D000FBF7D2BF00241E260F2306FB04F1064879
:1046E000013B13F0FF03057042700844F8D1013418
:1046F000062CF1D170BC7047D81C002010B5064ABA
:104700000B461478012C05D158780978FFF74CFF37
:10471000204610BD0020FCE74C0D0020024B18780D
:10472000431E5842584170474C0D0020B423584353
:10473000C1EB01111144223000EB4100704704200D
:104740007047032838B510D805290ED80E2A0CD882
:10475000FFF7ECFF054603F0A5FD0446681C03F0D7
:10476000A1FD44EA002080B238BD0020FCE7032808
:1047700070B51C460FD805290DD80E2A0BD8FFF7A7
:10478000D5FF0546E1B203F0F5FD210A681CBDE83E
:10479000704003F0EFBD70BD2DE9F84300240546DD
:1047A0000F461646A14600F12208BC4208EB040061
:1047B00001D1BDE8F8832B19B3F5347F04DA03F097
:1047C00071FD30550134F0E706F80490FAE72DE961
:1047D000F04105460E461746002400F12208B44277
:1047E00008EB040001D1BDE8F0812B19B3F5347F4B
:1047F00002DA395D03F0BEFD0134F0E7032806D884
:10480000B422504300F12201014803F099BD7047E2
:10481000D81C0020032838B50CD8084900230C7890
:10482000012C07D14D78A84206D10B70FFF7E6FFA7
:10483000204638BD0020FCE71846FAE74C0D002062
:10484000032806D8B422504300F12201014803F0A6
:10485000BFBD7047D81C0020074B084A10B51A602E
:104860000023074C2370607006F0F0FA60806078D7
:10487000BDE81040FFF7E4BFD41C0020D81C002086
:104880004C0D0020032808B50CD8074A5070FFF7DC
:10489000D7FF06F071FA2D2802D02D2006F069FA14
:1048A000012000E0002008BD4C0D0020032810B5B9
:1048B00010D8094A117869B9012450701470FFF7B3
:1048C000BFFF06F059FA2D2802D02D2006F051FA2C
:1048D000204600E0002010BD4C0D0020032810B53C
:1048E000044609D8FFF7ACFF2046FFF793FF2046A8
:1048F000BDE81040FFF7C6BF10BD000008B5054871
:1049000002F0B0FABDE808404FF4347222210248A8
:1049100003F016BDCF050108760C010808B50A465C
:1049200009490346087801280CD1A3F5A443203B8C
:104930001F2B06D9907820B150781178FFF734FEFC
:10494000002008BD0120FCE74C0D002070B5044696
:104950000078FF2801D106F00FFA0D4900220D461C
:1049600011F8016BD3B2864203D00132102AF7D17D
:1049700013462278FF2A12BFFF22013303F00F03F0
:10498000E85C18BF2270BDE8704006F0F2B900BFC5
:10499000CE08010838B50B780546FF2B0C4602D12E
:1049A00006F0EAF92070284638BD38B540F2F62402
:1049B00040F2063520460021013403F09EFCAC4253
:1049C000F8D138BD10B506F0D7F9002302460549E5
:1049D00011F8014BD8B2944203D00133102BF7D118
:1049E000184610BDCE08010810B50446FFF7EAFFCF
:1049F0002146BDE8104000F2F62003F07EBC08B569
:104A0000FFF7E0FF00F2F62003F04CFC062828BF79
:104A1000002008BD70B506F0AFF9FFF7F0FF0328DE
:104A200013D80B4B0130C4B213F8145003EB4403FA
:104A30005E7806F00BFA31460246284606F0DFF9AA
:104A40002046FFF7D1FF204670BDFF24FBE700BFE3
:104A5000C408010870B506F08FF9FFF7D0FF98B1D0
:104A60000A4B0138C4B213F8145003EB44035E78C8
:104A700006F0ECF931460246284606F0C0F9204619
:104A8000FFF7B2FF204670BDFF24FBE7C408010812
:104A900038B5FFF75BFFFFF7B2FF074B13F8104085
:104AA00003EB40035D7806F0D1F929460246204623
:104AB000BDE8384006F0A3B9C40801082DE9F04369
:104AC0001C4B85B01B7823B3002201AC1146104665
:104AD00005F048FB0025A0460A26DFF85C90174F3A
:104AE0000A2249464046FBF751FDFB7FEAB2B3FB81
:104AF000F6F1914200D8BAB9312B20780DD90023B4
:104B000068221946013504F0B3FC0A2D04F10104B2
:104B1000E6D1012005B0BDE8F0831D2B4FF0000366
:104B2000EED81A466821EDE7002320781A46194688
:104B3000E8E700BF8C1D0020C4050108640C0020BC
:104B400038B52A4B0446DB78294A13F001031ED0FE
:104B5000284B1B78A3B10023274920460B60012175
:104B600011701A461946FDF7E9FAFF224FF49671C3
:104B70002046FDF727FB2046BDE83840FDF7BCBACC
:104B80001D490B6001211170FF221946EBE71B4DF7
:104B9000E97F0F29DFD812780AB31A46FF21FDF703
:104BA000CDFA01224FF4FA712046FDF70BFBEB7FA3
:104BB000002BE0D1104D2B6813B907F0C5FC28601D
:104BC00028680028D7D007F003FD4EF660239842EE
:104BD000D1D9002301202B60FEF714FFCBE7134649
:104BE0001146FDF7ABFAFF22DCE700BFE8450020E5
:104BF000A00E00208D1D0020901D0020640C0020C0
:104C000070B5224E04463578042D2CD8DFE805F027
:104C100003381F30380007F007FB1D4BC0F3400678
:104C2000187801F0C2F8022818BF1A4B314618BF95
:104C30001D78204618BFC5F300152A460023FDF74E
:104C40007DFAFF2232212046FDF7BCFA0BE0FF235C
:104C50001A461946FDF772FA0322C8212046FDF7CD
:104C6000B1FA012333702046BDE87040FDF744BA25
:104C7000FF231A461946FDF761FA0122C821E2E72F
:104C800000233370FFF7BCFFEDE700BF961D002047
:104C9000A61D0020FC45002010B5144B04469B784F
:104CA0001BB14FF0804320229A61FF2C1DD1104B85
:104CB000D3F8EC3A23F07F43B3F5A04F0ED1002296
:104CC000502311462046FDF739FA20460121FDF711
:104CD0004DFA2046BDE81040FDF70EBAB3F5A00F1F
:104CE00003D1002350221946ECE710BDEF45002008
:104CF000A40E002008B5054B00211870FB20FDF71D
:104D00004BFABDE80840FB20FFF77ABF961D002054
:104D100010B5037CFA2B0AD0FB2B1DD0124B1B784D
:104D200003BBFFF7FBFC80F00104E4B20EE00E4B86
:104D30001C78BCB9836933F07F4307D0437C3BB117
:104D4000837E027E417E012004F092FB204610BD4E
:104D5000234622462146F6E7044B1B78012B01D15E
:104D6000FFF7DCFC0024F1E79F1D0020961D0020CA
:104D7000034B187810F0030018BF0120704700BFE4
:104D8000184600204FF4802210B50A4B0A4C9A6155
:104D900020460122802109F016FD4FF40003204631
:104DA000A3610122402109F00EFD4FF48003012090
:104DB000A36110BD000C004000040040042208B5AF
:104DC0000A4B80219A610A48202209F0FCFC20222B
:104DD0004021074809F0F7FC06F038F820B94FF0F9
:104DE00080434FF400129A61012008BD000C00407E
:104DF0000004004010B5134C01222046042109F0A4
:104E0000E2FC0423A4F58064C4F818342022204670
:104E10004FF4004109F0D7FC204620224FF4804196
:104E200009F0D1FC20224FF400414FF0804009F0FE
:104E3000CAFC4FF080431B69034AC3F3C03301200F
:104E4000137010BD000C00408D1D00200120704724
:104E500038B54FF080431B692F4DC3F3C0332B701F
:104E60002E4B2F4C1A692078120447D51B69590420
:104E700044D400F09AFF02280AD0207800F095FF71
:104E8000002834D1022000F001FF002001F0E7FAF1
:104E9000FDF75AFC80B9234C206807F099FBB0F568
:104EA0007A7F09D907F050FB206053200BF074F88B
:104EB0001D4B18780BF070F8FDF746FC1B4A1C4B95
:104EC000D27820BB12F0010F1A4A1CD04FF4802177
:104ED00091612A78F2B166221A701878164B1A7806
:104EE000824202D018700BF057F8012038BD2078AC
:104EF00000F05BFF0228CBD10020C4E700F055FF93
:104F00000228C5D1B9E7042191616522E4E7D207FF
:104F1000FBD5DEE76422DFE78D1D0020000800409E
:104F2000A61D0020981D00209E1D0020E8450020A1
:104F3000951D0020000C0040941D0020042307B59F
:104F40008DF8043050238DF8053082238DF806301B
:104F5000019803F071FD0D4AC0F30721C0F3074328
:104F6000107051709370C9B2DBB2C2B2FF20FDF76E
:104F7000E5F80322FA21FF20FDF724F9FF20FDF7D1
:104F8000BBF8012003B05DF804FB00BFEC45002036
:104F9000F7B5002382278DF800308DF801308DF8A9
:104FA0000270054600980E4603F046FD244CC0F3FF
:104FB00007236370C0F30743A370224B20701B7854
:104FC000BBB104238DF8043050238DF806708DF8A2
:104FD0000530019803F030FD1B4BC0F30742C0F3CE
:104FE000072718709A70C1B2D2B2F8B25F7005F09C
:104FF000B9F8FFF793FB48B907F016F9820705D512
:105000003420A3782278617804F032FAFFF786FB27
:1050100078B90E4B187800F0C8FE022809D00C4B66
:105020001B78DB0605D54F20A3782278617804F041
:105030001FFA31462846FFF741FD012003B0F0BDBD
:10504000F24500209F1D0020EC450020A61D0020F9
:10505000FC450020024B40F2F220196803F0A6B98B
:10506000F845002008B50020FFF744FE0022094B58
:105070001A70094A138823F4706323F00D0343F078
:1050800001031380FF239370FFF78FFCBDE80840F6
:10509000FFF7E0BF9D1D0020F845002010B520223D
:1050A000294C4FF40041294809F08DFB20224FF490
:1050B0008041264809F087FB01220421204609F09F
:1050C00082FB0423A36105F09DFE214BC0F3072260
:1050D0001870C0F307405A70987020224FF40041B6
:1050E0004FF0804009F06FFB4FF080431B69194A75
:1050F000C3F3C03340F2F220137003F0F1F8164C02
:10510000206008B9FFF7AEFF607800F00F00FFF7EE
:10511000A3FBFF22C821FA20FDF754F8FA20FCF780
:10512000EBFFFF22C821FB20FDF74CF8FB20FCF72A
:10513000E3FF05F08BFE20B94FF080434FF40012DF
:105140009A61012010BD00BF000C00400008004023
:10515000EF4500208D1D0020F845002013B505F017
:105160000BFE0128374C0CD105F04CFEC0F3072391
:1051700010F0FF008DF8053013D1DBB2C3B103236B
:10518000237023780133DBB20B2B237020D1002353
:10519000237005F0A7FD23782B4AD05C05F0E9FDCC
:1051A00022E0782810D005D8282809D0502809D026
:1051B0000923E5E7A02809D0C828F9D10823DFE7AB
:1051C0000423DDE70523DBE70623D9E70723D7E739
:1051D0000A2BDED105F016FEFF21C0F307420020A6
:1051E00005F00DFE05F096FD05F00CFE2378C0F3EA
:1051F0000742092B24D8DFE803F01D2323050C0FF9
:105200001215181BFF21002002B0BDE8104005F068
:10521000F6BDFF212820F7E7FF215020F4E7FF210A
:105220007820F1E7FF21A020EEE7FF21C820EBE77F
:105230000021E8E7FF2002B0BDE8104005F084BE81
:10524000C820F8E79C1D002094190020002307B512
:105250008DF804308DF8053082238DF806300198E2
:1052600003F0EAFB0C4AC0F30721C0F307431070B8
:1052700051709370C9B2DBB2C2B2FF20FCF75EFF7F
:105280000122FA21FF20FCF79DFFFF2003B05DF80B
:1052900004EBFCF731BF00BFEC45002047F60342AA
:1052A00008B503469342084613D047F6216293425D
:1052B00014D169B10A490B7883F00802C2F3C00225
:1052C00062F3C3030B70FFF7C1FFFFF7C3FE0020BB
:1052D00008BD0029FCD0FEF733FCF8E70120F7E712
:1052E000F845002008B50023FF201A461946FCF7B0
:1052F00025FF0122FA21FF20FCF764FFBDE80840EA
:10530000FF20FCF7F9BE000070B5B44E04463378B8
:105310000D463BB18B782BB10022114610463270FE
:1053200004F020FF47F62A039C4200F2D18047F6A2
:1053300020039C4234D8C12C00F0338160D8522C19
:105340000BD84E2C48D8162C00F040814FD8042C96
:1053500000F03481072C00F04981012408E1A4F514
:10536000FC444A3C0B2CF8D801A353F824F000BFAE
:10537000D75900081B5A00083F5A00085B53000821
:105380005B5300085B5300085B5300085B53000845
:105390005B530008635A00082F5800083D58000866
:1053A000A4F5F044213C092CD7D801A353F824F0EC
:1053B0008D5900085B5300085B5300085B530008DD
:1053C000155900083F59000889580008D5580008A9
:1053D0004D58000865580008814B503C1B78022C42
:1053E00000F21881DFE814F00A0110011C011A2CE8
:1053F000B3D17B4B1B785B07AFD55220AC7814E060
:1054000045F202239C4200F0A9823BD8E72C00F031
:10541000DA8110D8E32C00F0BF81E42C9DD1704BD1
:105420001B781C0799D56520AC78002C00F0F3811F
:1054300000F0BCFB9BE0B4F5A44F8ED1AB78002B01
:1054400000F0958000213620FCF7A6FE654C032273
:10545000FA213520FCF7B6FE3520FCF74DFE20780A
:1054600000F0A3FC022840F08280207800F09DFC30
:10547000002840F06B82022000F008FC002000F0C1
:10548000EEFF74E045F223239C4200F0138347F2C1
:1054900013039C4200F0708145F221239C427FF46B
:1054A0005CAFAB78002B7FF458AFFFF737F90028DB
:1054B0003FF453AF4C4B1A7832B10022294645F2E3
:1054C00021201A70FFF71AF90120474B187044E7A2
:1054D00047F61E639C4200F0968123D8B4F5F84F3E
:1054E00000F09C81A4F5FC44A3B2092B3FF635AF34
:1054F000092C3FF632AF01A353F824F02D560008D3
:1055000071560008B35600085B5300085B5300084F
:1055100037570008F5560008F55700085B53000898
:105520006B55000847F655639C423FF616AF47F6A9
:1055300049639C423FF613AF47F61F639C421CD061
:1055400047F620639C427FF408AFAB787BB12449D7
:105550000B7883F00402C2F3800262F382030B70C3
:10556000FFF774FEFFF776FD01E0AB7813B9002476
:10557000204670BDFFF7F2FDF9E7AC7854B1E320A7
:10558000FDF72CFB2C20FDF729FB4FF4FA6007F008
:105590006CFFECE72C20FDF781FBE320FDF77EFBA1
:1055A000E6E7AC78E0202CB1FDF718FB5220FDF7C0
:1055B00015FBDCE7FDF772FB5220EFE7084B1B7889
:1055C00058077FF5CAAE5020AC782EE7044B1B7805
:1055D00059077FF5C2AE5120AC7826E79F1D002009
:1055E000F8450020A61D00209D1D0020B34B1B7810
:1055F0005A077FF5B2AE4F20AC7816E75E077FF50D
:10560000ACAE0420AC7810E75C077FF5A6AE1620A0
:10561000AC780AE758077FF5A0AE0720AC7804E71E
:1056200059077FF59AAE1A20AC78FEE6FFF776F8B8
:10563000044600289BD1AB78002B3FF48EAEA04BE4
:105640001B78012B7FF489AEFEF772FD00287FF4F2
:1056500084AE502330201A461946FCF76FFD022213
:1056600096213020FCF7AEFD3020FCF745FD7FE7AA
:10567000FFF754F8044600287FF479AFAB78002B8D
:105680003FF46BAE8E4B1D78022D7FF466AEFEF7B5
:105690004FFD00287FF461AE50232F201A46194693
:1056A000FCF74CFD2A4696212F20FCF78BFD2F207E
:1056B000DBE7FFF733F8044600287FF458AFAB78F8
:1056C000002B3FF44AAE7E4B1B78032B7FF445AE94
:1056D000FEF72EFD00287FF440AE50232E201A4600
:1056E0001946FCF72BFD022296212E20FCF76AFDBD
:1056F0002E20BAE7FFF712F8044600287FF437AFF0
:10570000AB78002B3FF429AE6D4B1B78002B7FF458
:1057100024AEFEF70DFD00287FF41FAE50232C2091
:105720001A461946FCF70AFD022296212C20FCF7A6
:1057300049FD2C2099E7FEF7F1FF044600287FF48D
:1057400016AFAB78002B3FF408AE5D4B1B78062BF1
:105750007FF403AEFEF7ECFC00287FF4FEAD50238F
:105760002D201A461946FCF7E9FC022296212D202D
:10577000FCF728FD2D2078E7AC78002C3FF4EDAD48
:10578000002350211A46FF20FCF7D8FC0121FF20FE
:10579000FCF7ECFCFF2068E74A4B187800F005FBAB
:1057A00002287FF4DAAD484B1B78DA067FF5D5ADD9
:1057B000FEF7B4FF00287FF4D0ADE320AC78B4B19D
:1057C00000F0F4F9D4E63F4B187800F0EEFA022826
:1057D0007FF4C3AD3C4B1B78DB067FF5BEADFEF717
:1057E0009DFF00287FF4B9ADE720AC78E7E700F033
:1057F000F3F9B2E5324B1B7803B1AB78334A03F0CF
:1058000001031370B3E6AC78002C7FF4B0AEA8208F
:1058100000F0CCF9A82000F0DFF9A9E6AC78002C64
:105820003FF49BAD01F054FE06F0EAFEA0E6AB7833
:10583000002B3FF49CAE0123337098E6AB78002B2D
:105840003FF495AE62200AF0A7FB90E6AB78002B00
:105850003FF483AD05F080FBFF283FF47EADFFF7FA
:1058600041FD7AE5AB78002B3FF477AD05F074FB92
:105870006628F4D805F070FB332801D0FFF732FD1D
:10588000332005F061FB72E6AB78002B3FF465AD89
:1058900005F028FA4FF0804320229A6105F0D6FAED
:1058A0004D280B4C05D96823A37005F0CFFA682862
:1058B000D3E705F0CBFA1A30A070F6E7F8450020E0
:1058C000E8450020A61D0020FC4500208C1D00207E
:1058D000EF450020AB78002B3FF43FAD05F0B6FA62
:1058E0001A287E4C11D800221146104604F03AFCCA
:1058F00000234FF40012A3704FF080439A6105F02B
:10590000A5FA00283FF429ADA9E705F09FFA1A3857
:10591000A070F4E7AB78002B3FF41FADFFF77AF8E7
:10592000FF2801D0FFF7DEFC05F06CFA6B4BC0F3EB
:1059300007221870C0F307405A70987017E6AB78CA
:10594000002B3FF40AADFFF785F8E9E7207800F077
:105950002CFA02287FF40BAE00208DE5AB78002BEB
:105960003FF405AE00213520FCF716FC5C4C032209
:10597000FA213620FCF726FC3620FCF7BDFB207808
:1059800000F013FA02283FF4F2AD6EE5AB78002B7D
:105990003FF4E8AD534C0020FFF7ACF9607800F01D
:1059A0000F00FEF74DFF607800F00F00FEF732FFAA
:1059B00000224D4B1A70FFF749FCA01CFFF768F856
:1059C00005F020FA454BC0F307221870C0F30740DA
:1059D0005A709870C6E5AB78002B3FF4C8AD414CC7
:1059E000607800F00F00FEF72BFF607800F00F00EA
:1059F000FEF710FF0020A11CFEF7CCFF637860F3D8
:105A000003036370FFF726FB607800F00F00FEF7DA
:105A100039FF0020FFF76EF9A9E5AB78002B3FF4C2
:105A2000A6AD304C607800F00F00FEF709FF6078FB
:105A300000F00F00FEF7EEFE0120A11CDCE7AB78C2
:105A4000002B3FF494AD274C607800F00F00FEF778
:105A5000F7FE607800F00F00FEF7DCFE0220A11CCC
:105A6000CAE7AB78002B3FF482AD05F085F92D280D
:105A70007FF47DAD1B4E757815F00F057FF477AD83
:105A8000FEF74CFE0446707800F00F0054B9FEF7A4
:105A90000DFF204622462146FEF712FE0320FFF7A7
:105AA00029F965E5FEF7B6FE2846FFF723F90E4B08
:105AB0001D705CE5AB78002B7FF44FACFEF72EFE3B
:105AC00000283FF44AAC084B1A78002A3FF4FCAC9B
:105AD0000022294645F223201A70F3E4EF45002006
